UBBBBBBBBBBBBBBBBBBBBBBBBBBBBBBBBBBBBBBBBBBBBBBBBB9BBBBBBBBBBBBBBBBBBBBBBBBBBBBBBBBBBBBBBBBBBBBBBBB9BBBBBBBBBBBBBBBBBBBBBBBBBBBBBBBBBBBBBBBBBBBBBBBBBBBB9BBBBBBBBBBBBBBBBBBBBBBBBBBBBBBBBBBBBBBBBBBBBBBBBBM
A x                    A00000100000000000000000000A                                                A                                                    A00000000000000000000010000A                     xA
A   x                  A00000100000000000000000000A  __      ____  _  _  ____  ____  ____  ____    A     ___  _____  ____  ____  ____  ____        __   A00000000000000000000010000A                   x  A
A     x                A00000100000000000000000000A / / ___ ( ___)( \( )(_  _)(  _ \( ___)( ___)   A    / __)(  _  )(  _ \(_  _)(_  _)( ___)   ___ \ \  A00000000000000000000010000A                 x    A
A       x              A00000100000000000000000000A< < (___) )__)  )  (   )(   )   / )__)  )__)    A    \__ \ )(_)(  )   /  )(   _)(_  )__)   (___) > > A00000000000000000000010000A               x      A
A         x            A00000100000000000000000000A \_\     (____)(_)\_) (__) (_)\_)(____)(____)   A    (___/(_____)(_)\_) (__) (____)(____)       /_/  A00000000000000000000010000A             x        A
A           x          A00000100000000000000000000A                                                A                                                    A00000000000000000000010000A           x          A
A            UBBBBBBBBBL00000100000000000000000000KBBBBBBBBBBBBBBBBBBBBBBBBBBBBBBBBBBBBBBBBBBBBBBBBRBBBBBBBBBBBBBBBBBBBBBBBBBBBBBBBBBBBBBBBBBBBBBBBBBBBBL00000000000000000000010000KBBBBBBBBBBM           A
A            GB9BBBBBBBB000001000000000000000000000000000000000000000000000000000000000000000000000000000000000000000000000000000000000000000000000000000000000000000000000000100000BBBBBBBB9B3           A
A            AsA0000000000000100000000000000000000000000000000000000000000000000000000000000000000000000000000000000000000000000000000000000000000000000000000000000000000000010000000000000AsA           A
A            AsA0000000000000100000000000000000000000000000000000000000000000000000000000000000000000000000000000000000000000000000000000000000000000000000000000000000000000010000000000000AsA           A
A            AsA0111111111111111111111111111111111111111111111111111111111111111111111111111111111111111111111111111111111111111111111111111111111111111111111111111111111111111111111111111AsA           A
A            AsA0000000000000100000000000000000000000000000010000000000000000000000000000000010000000000000000100000000000000000000000000000001000000000000000000000000000000010000000000000AsA           A
A            AsA0000000000000100000000000000000000000000000010000000000000000000000000000000010000000000000000100000000000000000000000000000001000000000000000000000000000000010000000000000AsA           A
A            GB6BBBBBBBB000001000000000000000000000000000000100000BBBBBBBB9B9B9BBBBBBBB00000010000000000000000100000BBBBBBBB9B9B9BBBBBBBB0000010000000000000000000000000000000100000BBBBBBBB6B3           A
A            AsA0000000000000100000000000000000000000000000010000000000000AsAsA000000000000001000000000000000010000000000000AsAsA00000000000001000000000000000000000000000000010000000000000AsA           A
A            AsA0000000000000100000000000000000000000000000010000000000000AsAsA000000000000001000000000000000010000000000000AsAsA00000000000001000000000000000000000000000000010000000000000AsA           A
A            AsA0111111111111100000000000000000000000000000011111111111110AsAsA011111111111111000000000000000011111111111110AsAsA01111111111111000000000000000000000000000000011111111111110AsA           A
A            AsA0000000000000100000000000000000000000000000010000000000000AsAsA000000000000001000000000000000010000000000000AsAsA00000000000001000000000000000000000000000000010000000000000AsA           A
A            AsA0000000000000100000000000000000000000000000010000000000000AsAsA000000000000001000000000000000010000000000000AsAsA00000000000001000000000000000000000000000000010000000000000AsA           A
A            GB6BBBBBBBB000001000000000000000000000000000000100000BBBBBBBB6B6B6BBBBBBBB00000010000000000000000100000BBBBBBBB6B6B6BBBBBBBB0000010000000000000000000000000000000100000BBBBBBBB6B3           A
A            AsA0000000000000100000000000000000000000000000010000000000000AsAsA000000000000001000000000000000010000000000000AsAsA00000000000001000000000000000000000000000000010000000000000AsA           A
A            AsA0000000000000100000000000000000000000000000010000000000000AsAsA000000000000001000000000000000010000000000000AsAsA00000000000001000000000000000000000000000000010000000000000AsA           A
A            AsA0111111111111100000000000000000000000000000011111111111110AsAsA011111111111111000000000000000011111111111110AsAsA01111111111111000000000000000000000000000000011111111111110AsA           A
A            AsA0000000000000100000000000000000000000000000010000000000000AsAsA000000000000001000000000000000010000000000000AsAsA00000000000001000000000000000000000000000000010000000000000AsA           A
A            AsA0000000000000100000000000000000000000000000010000000000000AsAsA000000000000001000000000000000010000000000000AsAsA00000000000001000000000000000000000000000000010000000000000AsA           A
A            GB6BBBBBBBB000001000000000000000000000000000000100000BBBBBBBB6B6B6BBBBBBBB00000010000000000000000100000BBBBBBBB6B6B6BBBBBBBB0000010000000000000000000000000000000100000BBBBBBBB6B3           A
A            AsA0000000000000100000000000000000000000000000010000000000000AsAsA000000000000001000000000000000010000000000000AsAsA00000000000001000000000000000000000000000000010000000000000AsA           A
A            AsA0000000000000100000000000000000000000000000010000000000000AsAsA000000000000001000000000000000010000000000000AsAsA00000000000001000000000000000000000000000000010000000000000AsA           A
A            AsA0111111111111100000000000000000000000000000011111111111110AsAsA011111111111111000000000000000011111111111110AsAsA01111111111111000000000000000000000000000000011111111111110AsA           A
A            AsA0000000000000100000000000000000000000000000010000000000000AsAsA000000000000001000000000000000010000000000000AsAsA00000000000001000000000000000000000000000000010000000000000AsA           A
A            AsA0000000000000100000000000000000000000000000010000000000000AsAsA000000000000001000000000000000010000000000000AsAsA00000000000001000000000000000000000000000000010000000000000AsA           A
A            GB6BBBBBBBB000001000000000000000000000000000000100000BBBBBBBB6B6B6BBBBBBBB00000010000000000000000100000BBBBBBBB6B6B6BBBBBBBB0000010000000000000000000000000000000100000BBBBBBBB6B3           A
A            AsA0000000000000100000000000000000000000000000010000000000000AsAsA000000000000001000000000000000010000000000000AsAsA00000000000001000000000000000000000000000000010000000000000AsA           A
A            AsA0000000000000100000000000000000000000000000010000000000000AsAsA000000000000001000000000000000010000000000000AsAsA00000000000001000000000000000000000000000000010000000000000AsA           A
A            AsA0111111111111100000000000000000000000000000011111111111110AsAsA011111111111111000000000000000011111111111110AsAsA01111111111111000000000000000000000000000000011111111111110AsA           A
A            AsA0000000000000100000000000000000000000000000010000000000000AsAsA000000000000001000000000000000010000000000000AsAsA00000000000001000000000000000000000000000000010000000000000AsA           A
A            AsA0000000000000100000000000000000000000000000010000000000000AsAsA000000000000001000000000000000010000000000000AsAsA00000000000001000000000000000000000000000000010000000000000AsA           A
A            GB6BBBBBBBB000001000000000000000000000000000000100000BBBBBBBB6B6B6BBBBBBBB00000010000000000000000100000BBBBBBBB6B6B6BBBBBBBB0000010000000000000000000000000000000100000BBBBBBBB6B3           A
A            AsA0000000000000100000000000000000000000000000010000000000000AsAsA000000000000001000000000000000010000000000000AsAsA00000000000001000000000000000000000000000000010000000000000AsA           A
A            AsA0000000000000100000000000000000000000000000010000000000000AsAsA000000000000001000000000000000010000000000000AsAsA00000000000001000000000000000000000000000000010000000000000AsA           A
A            AsA0111111111111100000000000000000000000000000011111111111110AsAsA011111111111111000000000000000011111111111110AsAsA01111111111111000000000000000000000000000000011111111111110AsA           A
A            AsA0000000000000100000000000000000000000000000010000000000000AsAsA000000000000001000000000000000010000000000000AsAsA00000000000001000000000000000000000000000000010000000000000AsA           A
A            AsA0000000000000100000000000000000000000000000010000000000000AsAsA000000000000001000000000000000010000000000000AsAsA00000000000001000000000000000000000000000000010000000000000AsA           A
A            GB6BBBBBBBB000001000000000000000000000000000000100000BBBBBBBBRBRBRBBBBBBBB00000010000000000000000100000BBBBBBBBRBRBRBBBBBBBB0000010000000000000000000000000000000100000BBBBBBBB6B3           A
A            AsA0000000000000100000000000000000000000000000010000000000000000000000000000000010000000000000000100000000000000000000000000000001000000000000000000000000000000010000000000000AsA           A
A            AsA0000000000000100000000000000000000000000000010000000000000000000000000000000010000000000000000100000000000000000000000000000001000000000000000000000000000000010000000000000AsA           A
A            AsA0111111111111111111111111111111111111111111111111111111111111111111111111111111111111111111111111111111111111111111111111111111111111111111111111111111111111111111111111110AsA           A
A            AsA0000000000000000000000000000000000000000000000000000000000000000000000000000000000000000000000000000000000000000000000000000000000000000000000000000000000000000000000000000AsA           A
A            AsA0000000000000000000000000000000000000000000000000000000000000000000000000000000000000000000000000000000000000000000000000000000000000000000000000000000000000000000000000000AsA           A
A            ABRBBBBBBBB000000000000000000000000000000000000000000000000000000000000000000000000000000000000000000000000000000000000000000000000000000000000000000000000000000000000BBBBBBBBRB3           A
A            KBBBBBBBBBBBBBBBBBBBBBBBBBBBBBBBBBBBBBBBBBBBBBBBBBBBBBBBBBBBBBBBBBBBBBBBBBBBBBBBBBBBBBBBBBBBBBBBBBBBBBBBBBBBBBBBBBBBBBBBBBBBBBBBBBBBBBBBBBBBBBBBBBBBBBBBBBBBBBBBBBBBBBBBBBBBBBBBBL           A
A          x                                                                                                                                                                                   x          A
A        x                                                                                                                                                                                       x        A
A      x                                                                                                                                                                                           x      A
A    x                                                                                                                                                                                               x    A
A  x                                                                                                                                                                                                   x  A
Ax                                                                                                                                                                                                       xA
KBBBBBBBBBBBBBBBBBBBBBBBBBBBBBBBBBBBBBBBBBBBBBBBBBBBBBBBBBBBBBBBBBBBBBBBBBBBBBBBBBBBBBBBBBBBBBBBBBBBBBBBBBBBBBBBBBBBBBBBBBBBBBBBBBBBBBBBBBBBBBBBBBBBBBBBBBBBBBBBBBBBBBBBBBBBBBBBBBBBBBBBBBBBBBBBBBBBBBBBBBL
